S014000041737369676E6D656E7442312E7372656384
S113000045C0000060C000005EC000005CC000008D
S11300105AC0000058C0000056C0000054C0000080
S113002052C0000050C000004EC000004CC0000090
S11300304AC0000048C0000046C0000044C00000A0
S113004042C0000040C000003EC000003CC00000B0
S11300503AC0000038C0000036C0000034C00000C0
S113006032C0000030C000002EC000002CC00000D0
S11300702AC0000028C0000026C0000024C00000E0
S113008022C0000020C000001EC0000011241FBEBA
S1130090CFEFD0E1DEBFCDBF11E0A0E0B1E0E8E9F1
S11300A0F1E000E00BBF02C007900D92AE30B10743
S11300B0D9F721E0AEE0B1E001C01D92A031B20752
S11300C0E1F75FD067C09CCFAB9A8FEC97E00197C4
S11300D0F1F700C00000AB988FEC97E00197F1F7BF
S11300E000C000000895CF938FEF84BB15BAC0E21F
S11300F0C5BBEADFC5BBE8DF80E885BBE5DF15BA31
S1130100E3DF80EF85BBE0DF15BADEDF80E685BB89
S1130110DBDFCF910895CF93C82F85BBAA9AD4DF94
S1130120C295C07FC5BBAA9ACFDFCF910895CF9364
S1130130C82F85BBAA98C8DFC295C07FC5BBAA9843
S1130140C3DFCF910895CF93DF93EC0181E090E07A
S1130150EEDF82E090E0EBDF8881882379F021965E
S1130160DADF20910E0130910F012F5F3F4F309362
S11301700F0120930E0189918111F2CFDF91CF916C
S1130180089588EF81BBAFDF80E091E0DCDF81E0A0
S10B019090E00895F894FFCFFC
S11101984B6576696E2069732047617900001B
S9030000FC
