S014000041737369676E6D656E7442332E7372656382
S113000045C0000058C0000068C000007AC000006D
S113001052C0000050C000004EC000004CC00000A0
S11300204AC0000048C0000046C0000044C00000B0
S113003042C0000040C000003EC000003CC00000C0
S11300403AC0000038C0000036C0000034C00000D0
S113005032C0000030C000002EC000002CC00000E0
S11300602AC0000028C0000026C0000024C00000F0
S113007022C0000020C000001EC000001CC0000000
S11300801AC0000018C0000016C0000011241FBED2
S1130090CFEFD0E1DEBFCDBF11E0A0E0B1E0E2EAF6
S11300A0F1E000E00BBF02C007900D92A232B1074D
S11300B0D9F74AD074C0A4CF181619066CF420E0FE
S11300C030E0EFECF7E03197F1F700C000002F5F6C
S11300D03F4F28173907A9F708951F920F920FB6BB
S11300E00F9211248F93909B03C080E882BB03C0BE
S11300F082B3869582BB8F910F900FBE0F901F9095
S113010018951F920F920FB60F9211248F93979BFD
S113011003C081E082BB03C082B3880F82BB8F918E
S11301200F900FBE0F901F9018958031910520F00D
S11301308091200188BB0895880F991FFC01E0502D
S1130140FF4F808188BB08958FEF87BB11BAC6E04B
S1130150D0E0CC24CA94DD24DA946894EE24E4F844
S1130160F12C00E010E0809B02C0819910C0819BBB
S113017007C02196C131D10564F0CE2DDF2D09C011
S1130180809B07C021972AF4CC2DDD2D02C0C02FFF
S1130190D12FCE01CADF84EF91E08EDFE4CFF89453
S10501A0FFCF8B
S11301A23F0006005B004F0066006D007D00070003
S11301B27F006F0077007C0039005E007B007100D5
S10501C27900BE
S9030000FC
