:1000000045C0000060C000005EC000005CC0000091
:100010005AC0000058C0000056C0000054C0000084
:1000200052C0000050C000004EC000004CC0000094
:100030004AC0000048C0000046C0000044C00000A4
:1000400042C0000040C000003EC000003CC00000B4
:100050003AC0000038C0000036C0000034C00000C4
:1000600032C0000030C000002EC000002CC00000D4
:100070002AC0000028C0000026C0000024C00000E4
:1000800022C0000020C000001EC0000011241FBEBE
:10009000CFEFD0E1DEBFCDBF12E0A0E0B1E0E8ECF1
:1000A000FCE000E00BBF02C007900D92A83AB10738
:1000B000D9F722E0A8EAB2E001C01D92AD3BB20739
:1000C000E1F70BD3FFC59CCFAB9A89EF90E0019786
:1000D000F1F700C00000AB9889EF90E00197F1F7CD
:1000E00000C000000895CF938FEF84BB15BAC0E223
:1000F000C5BBEADFC5BBE8DF80E885BBE5DF15BA35
:10010000E3DF80EF85BBE0DF15BADEDF80E685BB8D
:10011000DBDFCF910895CF93C82F85BBAA9AD4DF98
:10012000C295C07FC5BBAA9ACFDFCF910895CF9368
:10013000DF93EC018881882329F02196ECDF8991F7
:100140008111FCCFDF91CF910895CF93C82F85BB4C
:10015000AA98BADFC295C07FC5BBAA98B5DFCF9178
:100160000895CF93DF93C0E1D0E080E091E0DFDF3E
:100170002197D9F780E8E9DFDF91CF9108951092B8
:10018000710080E280937000089584EA8093740087
:10019000E4E7F0E080818823ECF708958093730012
:1001A00084E880937400E4E7F0E080818823ECF732
:1001B00008951F93CF93DF93E8DF80EE90E0EEDFAA
:1001C00081E290E0EBDFC4E7D0E014E91883DDDFE3
:1001D00080EE90E0E3DF80EA90E0E0DF1883D5DF97
:1001E00080EE90E0DBDF83EE90E0D8DF1883CDDF98
:1001F00080EE90E0D3DF81E890E0D0DF1883DF91DC
:10020000CF911F910895181619066CF420E030E084
:10021000EFECF7E03197F1F700C000002F5F3F4FA0
:1002200028173907A9F708950F931F93CF93DF93EA
:10023000C0E004E710E0D4E9A8DF80EEAFDF8C2F48
:10024000ADDF80E0ABDFF801D083CE5FC031A1F736
:10025000DF91CF911F910F910895AF92BF92CF92EE
:10026000DF92EF92FF921F93CF93DF930F2EF7E968
:10027000AF2EF2E0BF2EF02D0F2EF7EACF2EF2E0D8
:10028000DF2EF02DE5010F2EF4E7EF2EF12CF02DEF
:1002900014E97BDF80EE82DF8C2F8A197FDF888173
:1002A00022967CDFF7011083CC15DD0591F7DF91F5
:1002B000CF911F91FF90EF90DF90CF90BF90AF90C4
:1002C00008959F92AF92BF92CF92DF92EF92FF92EA
:1002D0000F931F93CF93DF930F2EF7E4CF2EF2E00F
:1002E000DF2EF02D0F2EF7E9AF2EF2E0BF2EF02D0E
:1002F000912C0F2EF4E7EF2EF12CF02DD4E918C03D
:1003000044DF80EE4BDF8C2F49DFF80180810E5FE8
:100310001F4F44DFF701D083CE5FC03189F783E2FE
:1003200090E071DFF0E1CF0ED11CCA14DB0419F0AC
:100330008601C92DE5CFDF91CF911F910F91FF90DD
:10034000EF90DF90CF90BF90AF909F9008959F92D5
:10035000AF92BF92CF92DF92EF92FF920F931F93D3
:10036000CF93DF930F2EF7EFCF2EF1E0DF2EF02D9E
:100370000F2EF7E4AF2EF2E0BF2EF02D912C0F2EB2
:10038000F4E7EF2EF12CF02DD4E918C0FEDE80EE5C
:1003900005DF8C2F03DFF80180810E5F1F4FFEDE2B
:1003A000F701D083CE5FC03189F783E290E02BDF85
:1003B000F0E1CF0ED11CCA14DB0419F08601C92D5F
:1003C000E5CFDF91CF911F910F91FF90EF90DF90DC
:1003D000CF90BF90AF909F9008959F92AF92BF92A1
:1003E000CF92DF92EF92FF920F931F93CF93DF9301
:1003F0000F2EF7E7CF2EF1E0DF2EF02D0F2EF7EACC
:10040000AF2EF1E0BF2EF02D912C0F2EF4E7EF2E42
:10041000F12CF02DD4E918C0B8DE80EEBFDE8C2FB1
:10042000BDDEF80180810E5F1F4FB8DEF701D0837B
:10043000CE5FC03189F783E290E0E5DEF0E1CF0ED8
:10044000D11CCA14DB0419F08601C92DE5CF8CEB51
:1004500092E0D9DE0F2EF7E9CF2EF1E0DF2EF02D5E
:100460000F2EF7E6AF2EF1E0BF2EF02D912C0F2EC0
:10047000F4E7EF2EF12CF02DD4E918C086DE80EEE3
:100480008DDE8C2F8BDEF80180810E5F1F4F86DEA4
:10049000F701D083CE5FC03189F783E290E0B3DE0D
:1004A000F0E1CF1AD108CA14DB0419F08601C92D76
:1004B000E5CFDF91CF911F910F91FF90EF90DF90EB
:1004C000CF90BF90AF909F9008959F92AF92BF92B0
:1004D000CF92DF92EF92FF920F931F93CF93DF9310
:1004E0000F2EF7EACF2EF1E0DF2EF02D0F2EF7EFD3
:1004F000AF2EF1E0BF2EF02D912C0F2EF4E7EF2E52
:10050000F12CF02DD4E918C040DE80EE47DE8C2FB0
:1005100045DEF80180810E5F1F4F40DEF701D0837A
:10052000CE5FC03189F788E290E06DDEF0E1CF0E5A
:10053000D11CCA14DB0419F08601C92DE5CFDF9167
:10054000CF911F910F91FF90EF90DF90CF90BF90D0
:10055000AF909F9008959F92AF92BF92CF92DF92FB
:10056000EF92FF920F931F93CF93DF930F2EF7E03D
:10057000CF2EF1E0DF2EF02D0F2EF7E7AF2EF1E0BA
:10058000BF2EF02D912C0F2EF4E7EF2EF12CF02D35
:10059000D4E918C0FADD80EE01DE8C2FFFDDF80112
:1005A00080810E5F1F4FFADDF701D083CE5FC0312F
:1005B00089F782E390E027DEF0E1CF0ED11CCA1468
:1005C000DB0419F08601C92DE5CF2EDE84EF91E022
:1005D0001ADE43DEDF91CF911F910F91FF90EF90D4
:1005E000DF90CF90BF90AF909F90089523B330E0FD
:1005F00028233923232B61F02091A8023091A902EE
:100600002823392381E090E0232B21F080E0089516
:1006100080E090E0089581E090E0E8CF089582E0E6
:1006200090E0E4CF089580E490E0E0DF892B79F456
:1006300081E090E04091AC025091AD022091AA027D
:100640003091AB022417350724F080E0089581E053
:1006500090E0089588E090E0C9CF089580E890E0A8
:10066000C5CF0895109261008FEF8ABB81EE87B9E4
:1006700086EE86B938DD8CE291E0C5DD72CD089555
:10068000CF93DF936EDD85B1282F30E03093AD023C
:100690002093AC021F928F9382E091E09F938F93FF
:1006A000CEEAD2E0DF93CF9344D085E090E0ABDD9B
:1006B000CE013DDD85E090E0A6DD8FE0FE011192E8
:1006C0008A95E9F785B18BBB0F900F900F900F9033
:1006D0000F900F90DF91CF91089551DD6ADD14BA2C
:1006E000C1DFA2DDBADD85B190E003969093AB0245
:1006F0008093AA0290DF892B09F0E3DD90DF892B3C
:1007000009F025DE90DF892B09F067DEA3DF892B56
:1007100009F0DBDEA3DF892B09F01DDFB1DF83B336
:1007200090E09093A9028093A8028AEF90E06BDD9D
:10073000E1CF0F931F93CF93DF93CDB7DEB72E9703
:100740000FB6F894DEBF0FBECDBF0D891E8986E0BF
:100750008C831A8309838FEF9FE79E838D83AE017D
:10076000475E5F4F6F89788DCE01019611D02F8142
:100770003885F801E20FF31F10822E960FB6F89419
:10078000DEBF0FBECDBFDF91CF911F910F910895B6
:100790002F923F924F925F926F927F928F929F9291
:1007A000AF92BF92CF92DF92EF92FF920F931F937F
:1007B000CF93DF93CDB7DEB72C970FB6F894DEBF9B
:1007C0000FBECDBF7C016B018A01FC01178216822E
:1007D000838181FFB0C1CE0101964C01F701938165
:1007E000F60193FD859193FF81916F01882309F4B0
:1007F0009EC1853239F493FD859193FF81916F01FC
:10080000853221F4B70190E0C7D1E8CF512C312CCB
:1008100020E02032A0F48B3269F030F4803259F0BD
:10082000833269F420612CC08D3239F0803339F481
:10083000216026C02260246023C0286021C027FDDB
:1008400027C030ED380F3A3078F426FF06C0FAE0C2
:100850005F9E300D1124532E13C08AE0389E300D58
:100860001124332E20620CC08E3221F426FD5FC18C
:10087000206406C08C3611F4206802C0883641F42A
:10088000F60193FD859193FF81916F018111C1CF95
:10089000982F9F7D9554933028F40C5F1F4FFFE3F2
:1008A000F9830DC0833631F0833771F0833509F059
:1008B00057C021C0F801808189830E5F1F4F4424F7
:1008C0004394512C540114C03801F2E06F0E711C96
:1008D000F801A080B18026FF03C0652D70E002C042
:1008E0006FEF7FEFC5012C874CD12C0183012C8544
:1008F0002F77222E16C03801F2E06F0E711CF8011E
:10090000A080B18026FF03C0652D70E002C06FEFAC
:100910007FEFC5012C872AD12C012C852068222E3F
:10092000830123FC19C0832D90E048165906A0F4DA
:10093000B70180E290E030D13A94F5CFF50127FC81
:10094000859127FE81915F01B70190E025D131109B
:100950003A94F1E04F1A51084114510479F7DEC07E
:10096000843611F0893631F5F80127FF07C0608120
:100970007181828193810C5F1F4F08C060817181FA
:10098000072E000C880B990B0E5F1F4F2F76722ECF
:1009900097FF09C090958095709561957F4F8F4F17
:1009A0009F4F2068722E2AE030E0A4012DD1A82E9E
:1009B000A81843C0853729F42F7EB22E2AE030E0F4
:1009C00025C0F22FF97FBF2E8F36C1F018F488357D
:1009D00079F0ADC0803719F0883721F0A8C02F2FEB
:1009E0002061B22EB4FE0DC08B2D8460B82E09C0DC
:1009F00024FF0AC09F2F9660B92E06C028E030E081
:100A000005C020E130E002C020E132E0F801B7FE8D
:100A100007C060817181828193810C5F1F4F06C086
:100A20006081718180E090E00E5F1F4FA401ECD0E7
:100A3000A82EA818FB2DFF777F2E76FE0BC0372D32
:100A40003E7FA51450F474FE0AC072FC08C0372D16
:100A50003E7E05C0BA2C372D03C0BA2C01C0B52C80
:100A600034FF0DC0FE01EA0DF11D8081803311F4C9
:100A7000397E09C032FF06C0B394B39404C0832FFB
:100A8000867809F0B39433FD12C030FF06C05A2CAB
:100A9000B31418F4530C5B18B32CB31460F4B701FF
:100AA00080E290E03C8778D0B3943C85F6CFB314D5
:100AB00010F43B1801C0312C34FF11C0B70180E3A2
:100AC00090E03C8769D03C8532FF16C031FD03C001
:100AD00088E790E002C088E590E0B7010CC0832F62
:100AE000867851F031FF02C08BE201C080E237FD11
:100AF0008DE2B70190E050D0A51430F4B70180E347
:100B000090E04AD05A94F8CFAA94F401EA0DF11D6E
:100B10008081B70190E040D0A110F6CF332009F4D6
:100B20005DCEB70180E290E037D03A94F7CFF7017D
:100B30008681978102C08FEF9FEF2C960FB6F894B5
:100B4000DEBF0FBECDBFDF91CF911F910F91FF9000
:100B5000EF90DF90CF90BF90AF909F908F907F905D
:100B60006F905F904F903F902F900895FC010590FB
:100B7000615070400110D8F7809590958E0F9F1F9F
:100B80000895FC016150704001900110D8F78095E4
:100B900090958E0F9F1F08950F931F93CF93DF9310
:100BA000FB01238121FD03C08FEF9FEF28C022FFAF
:100BB00016C046815781248135814217530744F47A
:100BC000A081B1819D012F5F3F4F318320838C93A2
:100BD000268137812F5F3F4F3783268310C0EB017B
:100BE000092F182F0084F185E02D0995892BE1F656
:100BF0008E819F8101969F838E83812F902FDF911D
:100C0000CF911F910F910895FA01AA27283051F131
:100C1000203181F1E8946F936E7F6E5F7F4F8F4F2D
:100C20009F4FAF4FB1E03ED0B4E03CD0670F781F8C
:100C3000891F9A1FA11D680F791F8A1F911DA11D71
:100C40006A0F711D811D911DA11D20D009F46894AA
:100C50003F912AE0269F11243019305D3193DEF652
:100C6000CF010895462F4770405D4193B3E00FD008
:100C7000C9F7F6CF462F4F70405D4A3318F0495DF3
:100C800031FD4052419302D0A9F7EACFB4E0A695D6
:100C90009795879577956795BA95C9F700976105F8
:100CA000710508959B01AC010A2E0694579547954E
:100CB00037952795BA95C9F7620F731F841F951F43
:080CC000A01D0895F894FFCF78
:100CC80020002569B04300F300F300F300000000A2
:100CD80000E1003F000000F300F300F30000000013
:100CE8000033001E000000F300F300F30000000CC6
:100CF8000012000C000000E100E10000001E0021CD
:100D080000210021001E00C0001E002100C000C0FC
:100D180000C00021001E001E002100C000C000C04D
:100D280000C00021001E00C00000000000000000FC
:100D38000000000000C000F300F300F30000000012
:100D480000E1003F000000E100F300F300000000B4
:100D58000000003F0000000000E100F30000000078
:100D6800003F00E1000000F300F300F30000000082
:100D780000E1003F0000000000F300F30000000065
:100D88000021001E0000000000F300F30000000C2A
:100D98000012000C0000000000F300F30000000047
:100DA8000021001E000000F300F300F30000000023
:100DB80000E1003F000000F300F300F30000000032
:100DC80000E1003F0000000000F300F30000000015
:100DD80000E1003F00000000000000F300000000F8
:100DE80000E1003F0000000000F300F300000000F5
:100DF80000E1003F000000F300F300F300000000F2
:100E080000E1003F000000F300F300F300000000E1
:100E180000E1003F0000007000F300F30000000054
:100E280000E1003F00000070007000F300000000C7
:100E380000E1003F0000007000F300F30000000034
:100E480000E1003F000000F300F300F300000000A1
:100E580000E1003F000000F300F300F30000000091
:080E680000E1003F0000000062
:00000001FF
