S014000041737369676E6D656E7442332E7372656382
S113000045C000004BC0000049C0000047C00000CC
S113001045C0000043C0000041C000003FC00000D4
S11300203DC000004BC0000039C0000037C00000D4
S113003035C0000033C0000031C000002FC00000F4
S11300402DC000002BC0000029C0000027C0000004
S113005025C0000023C0000021C000001FC0000014
S11300601DC000001BC0000019C0000017C0000024
S113007015C0000013C0000011C000000FC0000034
S11300800DC000000BC0000009C0000011241FBEF9
S1130090CFEFD0E1DEBFCDBF02D02AC0B1CF8FEF0A
S11300A084BB11BA02D07894FFCF87B78FEF87BF94
S11300B014BC85E783BD8DE185BD08951F920F9221
S11300C00FB60F9211248F9383B5853729F483ECEF
S11300D083BD80E885BB06C083B5833C19F485E7FE
S11300E083BD15BA8F910F900FBE0F901F90189576
S10700F0F894FFCFAE
S9030000FC
