S014000041737369676E6D656E7442322E7372656383
S113000045C000004BC000005BC000008BC0000076
S113001045C0000043C0000041C000003FC00000D4
S11300203DC000003BC0000039C0000037C00000E4
S113003035C0000033C0000031C000002FC00000F4
S11300402DC000002BC0000029C0000027C0000004
S113005025C0000023C0000021C000001FC0000014
S11300601DC000001BC0000019C0000017C0000024
S113007015C0000013C0000011C000000FC0000034
S11300800DC000000BC0000009C0000011241FBEF9
S1130090CFEFD0E1DEBFCDBF77D086C0B1CF181689
S11300A019066CF420E030E0EFECF7E03197F1F75B
S11300B000C000002F5F3F4F28173907A9F70895A4
S11300C01F920F920FB60F9211240BB60F922F931B
S11300D03F934F935F936F937F938F939F93AF93CC
S11300E0BF93EF93FF938BB3803821F08BB3880FCA
S11300F08BBB02C081E08BBB8AEF90E0D0DFFF9125
S1130100EF91BF91AF919F918F917F916F915F918B
S11301104F913F912F910F900BBE0F900FBE0F90F8
S11301201F9018951F920F920FB60F9211240BB6C1
S11301300F922F933F934F935F936F937F938F937C
S11301409F93AF93BF93EF93FF938BB3813021F0D1
S11301508BB386958BBB02C080E88BBB8AEF90E0A3
S11301609EDFFF91EF91BF91AF919F918F917F910E
S11301706F915F914F913F912F910F900BBE0F9014
S11301800FBE0F901F90189589EF81BB8FEF8ABB2C
S113019081E08BBBEAE6F0E080818A60808389B7E6
S10F01A0866089BF7894FFCFF894FFCFED
S9030000FC
